S00F00004B7572736163682E7372656344
S11300000C942A000C9447000C9447000C9447006D
S11300100C9447000C9447000C941D020C94470068
S11300200C9447000C9447000C9447000C94470030
S11300300C9447000C9447000C9447000C94470020
S11300400C9447000C9447000C9447000C94470010
S11300500C94470011241FBECFE5D4E0DEBFCDBF12
S113006013E0A0E6B0E0EAEEFFE002C005900D92D6
S1130070AC34B107D9F723E0ACE4B3E001C01D927E
S1130080A236B207E1F70E94C2040C94F3070C9461
S11300900000CF93DF9300D000D0CDB7DEB7282F78
S11300A0207F30E1839FC0011124922F9C609983AB
S11300B028602A83982F9C609B8388608C8344E00B
S11300C0BE016F5F7F4F87E20E940A010F900F907D
S11300D00F900F90DF91CF910895CF93DF9300D0CD
S11300E000D0CDB7DEB7282F207F30E1839FC00139
S11300F01124922F9D60998329602A83982F9D60F3
S11301009B8389608C8344E0BE016F5F7F4F87E2ED
S11301100E940A010F900F900F900F90DF91CF91E2
S11301200895009719F0019719F003C0606801C0A1
S1130130606C862F0E94490008950E94060187EA98
S113014091E60197F1F700C0000083ED90E3019779
S1130150F1F700C0000080E30E94490081EE94E0C2
S11301600197F1F700C0000080E30E94490089EF85
S113017090E00197F1F700C0000080E30E9449007D
S113018083EC99E00197F1F700C0000080E20E943F
S1130190490083EC99E00197F1F700C0000088E280
S11301A00E94490089EF90E00197F1F700C0000038
S11301B088E00E94490089EF90E00197F1F700C0C0
S11301C0000081E00E94490083EC99E00197F1F777
S11301D000C0000086E00E94490089EF90E001978A
S11301E0F1F700C000008CE00E9449000895CF930D
S11301F0DF93EC018881882331F021960E946D0001
S113020089918111FBCFDF91CF91089580E280B96C
S113021011B8089594EA96BF06B607FEFDCF880F7D
S113022083B984E886BF06B607FEFDCF81B1887F17
S1130230883119F4411105C01DC084E986BF81E0ED
S11302400895FB014150842F90E00196680F791FB7
S113025094E8819183B996BF06B607FEFDCF81B1BC
S1130260887F883221F084E986BF81E00895E6170B
S1130270F70779F784E986BF80E0089590BD89B9CE
S113028088E18AB986E880BD8898899A08955D9B3B
S1130290FECF8CB90895CF93DF93EC018881882336
S11302A061F021960E9447018FEC97E00197F1F7E6
S11302B000C0000089918111F5CFDF91CF9108959D
S11302C05F9BFECF8CB10895CF92DF92EF92FF92A5
S11302D00F931F93CF936C017B0182E690E00E9401
S11302E04B0100E010E081E0E81AF10820C00E9410
S11302F06001C82F883039F18F3769F424C0015068
S1130300110988E00E94470180E20E94470188E0C9
S11303100E9447010CC00E944701CD3059F0CA30F9
S113032049F0F601E00FF11FC0830F5F1F4F0E1558
S11303301F05ECF2F601E00FF11F108208C08C2FAC
S11303400E944701EECF10161106CCF2F8CFCF91E0
S11303501F910F91FF90EF90DF90CF9008956091DF
S11303605C0384E090E00E94E2076091600083E017
S113037090E00E94E20760915E0382E090E00E94B8
S1130380E2076091600380E090E00E94E207089534
S1130390EF92FF920F931F93CF93DF9384E090E04B
S11303A00E94DA07E82EF12CF0925D03E0925C03E0
S11303B083E090E00E94DA07082F10E010936100B8
S11303C00093600082E090E00E94DA07C82FD0E03A
S11303D0D0935F03C0935E0380E090E00E94DA074D
S11303E090E0909361038093600388E1E816F10440
S11303F024F010925D0310925C030C33110524F079
S11304001092610010926000EC9724F010925F0348
S113041010925E03DF91CF911F910F91FF90EF90A7
S113042008951FBC8BE08EBD8DE790E09BBD8ABD17
S113043089B7806189BF789408951F920F920FB68F
S11304400F9211242F933F934F935F936F937F9356
S11304508F939F93AF93BF93EF93FF938091600328
S1130460909161030196883E23E092072CF49093C7
S11304706103809360033DC0109261031092600396
S113048080915E0390915F0301968C3391052CF467
S113049090935F0380935E032CC010925F031092CD
S11304A05E03809160009091610001968C33910508
S11304B02CF490936100809360001BC01092610043
S11304C01092600080915C0390915D03019668E155
S11304D070E00E94710790935D0380935C0321E0B8
S11304E030E0309351032093500390934F03809353
S11304F04E0380914C0390914D03019690934D03CC
S113050080934C03CC9734F00E94AF0110924D03BA
S113051010924C038091520390915303892BE9F17B
S113052080915A0390915B030196883E23E09207E1
S11305302CF490935B0380935A032FC010925B03B7
S113054010925A03809158039091590301968C3369
S113055091052CF490935903809358031EC0109274
S113056059031092580380915603909157030196B2
S11305708C3391052CF490935703809356030DC04C
S1130580109257031092560380915403909155038F
S113059001969093550380935403FF91EF91BF917B
S11305A0AF919F918F917F916F915F914F913F9107
S11305B02F910F900FBE0F901F901895EF92FF92FE
S11305C00F931F93CF93DF937B018A019A012150EC
S11305D0310982F0FB01E40FF51FEB012AE030E062
S11305E0B9010E947107805D8293862F972FEC17C3
S11305F0FD07B1F7F701E00FF11F1082DF91CF91F2
S11306001F910F91FF90EF900895CF93DF9300D047
S113061000D01F92CDB7DEB764E070E080E090E0D8
S11306200E94910042E050E0BE016F5F7F4F8091D5
S11306305C0390915D030E94DE02CE0101960E944C
S1130640F70085E690E00E94F70042E050E0BE012A
S11306506F5F7F4F80916000909161000E94DE0285
S1130660CE0101960E94F70085E690E00E94F70013
S113067042E050E0BE016F5F7F4F80915E03909136
S11306805F030E94DE02CE0101960E94F7002FEF65
S113069081EE94E0215080409040E1F700C00000DA
S11306A00F900F900F900F900F90DF91CF910895BE
S11306B0CF93DF9300D000D01F92CDB7DEB762E0B6
S11306C070E080E090E00E94910042E050E0BE01C2
S11306D06F5F7F4F80915403909155030E94DE0217
S11306E0CE0101960E94F70085E690E00E94F70093
S11306F042E050E0BE016F5F7F4F809156039091BE
S113070057030E94DE02CE0101960E94F70085E69F
S113071090E00E94F70042E050E0BE016F5F7F4F1F
S113072080915803909159030E94DE02CE010196F4
S11307300E94F70085E690E00E94F70080915A033A
S113074090915B036AE070E00E947107CB0142E084
S113075050E0BE016F5F7F4F0E94DE02CE01019622
S11307600E94F7002FEF81EE94E0215080409040EA
S1130770E1F700C000000F900F900F900F900F90C2
S1130780DF91CF910895EF92FF920F931F93CF9330
S1130790DF9300D01F92CDB7DEB78C0142E050E06A
S11307A0BE016F5F7F4F80915C0390915D030E9457
S11307B0DE02BE016F5F7F4FC8010E94CB07F801C4
S11307C001900020E9F731970F2EFAE3EF2EF12C78
S11307D0F02DF182E08242E050E0BE016F5F7F4F76
S11307E080916000909161000E94DE02BE016F5F03
S11307F07F4FC8010E94B707F80101900020E9F774
S11308003197F182E08242E050E0BE016F5F7F4F9A
S113081080915E0390915F030E94DE02BE016F5FD0
S11308207F4FC8010E94B7070F900F900F90DF9180
S1130830CF911F910F91FF90EF900895EF92FF9247
S11308400F931F93CF93DF9300D000D0CDB7DEB7C3
S11308508C0142E050E0BE016F5F7F4F80915403F2
S1130860909155030E94DE02BE016F5F7F4FC80165
S11308700E94CB07F80101900020E9F731970F2E71
S1130880FAE3EF2EF12CF02DF182E08242E050E009
S1130890BE016F5F7F4F80915603909157030E9472
S11308A0DE02BE016F5F7F4FC8010E94B707F801E7
S11308B001900020E9F73197F182E08242E050E0B4
S11308C0BE016F5F7F4F80915803909159030E943E
S11308D0DE02BE016F5F7F4FC8010E94B707F801B7
S11308E001900020E9F73197F182E08242E050E084
S11308F0BE016F5F7F4F80915A0390915B030E940A
S1130900DE02BE016F5F7F4FC8010E94B7070F90E0
S11309100F900F900F90DF91CF911F910F91FF9047
S1130920EF9008958091500390915103892B49F1E0
S113093080914E0390914F031816190614F580E028
S113094090E0959A2FEF31EE44E021503040404042
S1130950E1F700C0000095982FEF31EE44E02150FC
S113096030404040E1F700C00000019620914E0362
S113097030914F038217930724F31092510310927E
S113098050030895CF93DF93CDB7DEB7A7970FB683
S1130990F894DEBF0FBECDBF8D9A83E390E00E9432
S11309A03E010E949D000E9411020E94C8010E9403
S11309B0920487E690E00E944B01CE014F960E947C
S11309C0C303CE014F960E944B010E9405035F9B17
S11309D0EECF82E690E00E944B016EE170E0CE0122
S11309E001960E9464016894772475F8CC24C3941A
S11309F0D12C5E012FE1A20EB11CEC2CFD2C0A2D92
S1130A001B2D8091500390915103892B09F464C2EA
S1130A1080914E0390914F03181619060CF05CC296
S1130A2080E090E022B3272522BB3FEF41EE24E093
S1130A30315040402040E1F700C0000022B3272598
S1130A4022BB3FEF41EE24E0315040402040E1F72B
S1130A5000C00000019620914E0330914F0382178D
S1130A60930704F3109251031092500335C260E0CF
S1130A7070E08C2D9D2D0E94910081E00E94490020
S1130A803FEF41EE84E0315040408040E1F700C048
S1130A90000060E070E08C2D9D2D0E9491008EE797
S1130AA090E00E94F7009FEF21EE34E09150204047
S1130AB03040E1F700C0000041E0841A9108B9F623
S1130AC08AE890E00E944B0182E990E00E944B0189
S1130AD088EB90E00E944B018EED90E00E944B0168
S1130AE088EB90E00E944B018EEF90E00E944B0156
S1130AF088EB90E00E944B0181E291E00E944B015F
S1130B0084E491E00E944B0187E691E00E944B014E
S1130B1088EB90E00E944B018AE891E00E944B012F
S1130B2080EB91E00E944B016EE170E0CE010196F2
S1130B300E94640164EC71E0CE0101960E94C20738
S1130B40892B81F069EC71E0CE0101960E94C20705
S1130B50892B41F06EEC71E0CE0101960E94C20730
S1130B60892BE9F481E00E9449000E94920487E6FF
S1130B7090E00E944B01C5010E94C303C5010E947D
S1130B804B010E9405035F9BF0CF6EE170E0CE0144
S1130B9001960E94640182E690E00E944B0163ED9D
S1130BA071E0CE0101960E94C207892B89F06AED9B
S1130BB071E0CE0101960E94C207892B49F061EED3
S1130BC071E0CE0101960E94C207892B09F084C00E
S1130BD081E00E9449006894882482F8912C60E0A6
S1130BE070E08C2D9D2D0E94910081E00E944900AF
S1130BF08FEF91EE24E0815090402040E1F700C057
S1130C00000060E070E08C2D9D2D0E94910088EE24
S1130C1091E00E94F7003FEF41EE84E03150404004
S1130C208040E1F700C0000091E0891A9108B9F60C
S1130C3088EF91E00E944B016EE170E0CE010196D5
S1130C400E946401CE0101960E94990788319105A2
S1130C5028F490935D0380935C0305C088E092E0E0
S1130C600E944B01E5CF8AE192E00E944B016EE1C4
S1130C7070E0CE0101960E946401CE0101960E94AB
S1130C8099078C33910528F4909361008093600058
S1130C9005C08CE292E00E944B01E5CF8DE392E027
S1130CA00E944B016EE170E0CE0101960E94640146
S1130CB0CE0101960E9499078C33910540F49093DC
S1130CC05F0380935E0381E00E94490005C08CE2CB
S1130CD092E00E944B01E2CF6FE472E0CE010196F4
S1130CE00E94C207892B89F069E572E0CE01019662
S1130CF00E94C207892B49F063E672E0CE01019697
S1130D000E94C207892B09F07CCE81E00E94490031
S1130D106894882482F8912C60E070E08C2D9D2DDD
S1130D200E94910081E00E9449002FEF31EE44E0DF
S1130D30215030404040E1F700C0000060E070E026
S1130D408C2D9D2D0E9491008DE692E00E94F7006B
S1130D508FEF91EE24E0815090402040E1F700C0F5
S1130D60000031E0831A9108B9F68AE890E00E9405
S1130D704B0189E792E00E944B018EE992E00E94C8
S1130D804B018091520390915303892B81F00E946F
S1130D9092048EEE92E00E944B01802F912F0E94CC
S1130DA01E04802F912F0E944B010E9458035F9BC9
S1130DB0E8CF6EE170E0CE0101960E94640169E023
S1130DC073E0CE0101960E94C207892B81F06FE087
S1130DD073E0CE0101960E94C207892B41F065E1C0
S1130DE073E0CE0101960E94C207892B41F481E091
S1130DF00E944900E0925203F0925303C2CF6BE188
S1130E0073E0CE0101960E94C207892B81F060E253
S1130E1073E0CE0101960E94C207892B41F065E27E
S1130E2073E0CE0101960E94C207892B29F4109227
S1130E30530310925203A5CF6AE273E0CE010196E8
S1130E400E94C207892B81F060E373E0CE01019612
S1130E500E94C207892B41F066E373E0CE0101963C
S1130E600E94C207892BB9F41092530310925203C3
S1130E7010925B0310925A03109259031092580374
S1130E801092570310925603109255031092540374
S1130E900E94580376CF6CE373E0CE0101960E9462
S1130EA0C207892B89F061E473E0CE0101960E94A8
S1130EB0C207892B49F066E473E0CE0101960E94D3
S1130EC0C207892B09F05DCF10925303109252038D
S1130ED081E00E94490095CD6894882482F8912C81
S1130EE0C6CD97FB072E16F4009407D077FD09D0E2
S1130EF00E94850707FC05D03EF4909581959F4F8D
S1130F000895709561957F4F0895AA1BBB1B51E10D
S1130F1007C0AA1FBB1FA617B70710F0A61BB70B65
S1130F20881F991F5A95A9F780959095BC01CD010A
S1130F300895FC0188279927E89421912032E9F348
S1130F40293010F02E30C8F32B3241F02D3239F411
S1130F50689404C00E94D207820F911D21912053EE
S1130F602A30C0F31EF4909581959F4F0895FB019C
S1130F70DC010D900020E9F7119701900D920020FB
S1130F80E1F70895FB01DC018D91019080190110B6
S1130F90D9F3990B0895FB01DC0101900D92002017
S1130FA0E1F708957AE0979F902D879F802D910D0A
S1130FB011240895E199FECF9FBB8EBBE09A992737
S1130FC08DB30895262FE199FECF9FBB8EBBE09A87
S1130FD001970DB2021631F02DBB0FB6F894E29AC8
S10D0FE0E19A0FBE0895F894FFCFC4
S1130FEA19000D0A003A000D54696D65206E6F7779
S1130FFA202848483A4D4D3A5353293A20002A4D5D
S113100A61696E206D656E752A001B5B324A1B5B33
S113101A48000A0D5F5F5F5F5F5F5F5F5F5F5F5FEF
S113102A5F4D61696E206D656E755F5F5F5F5F5FBF
S113103A5F5F5F5F5F5F5F000A0D2D2D2D2D2D2DE4
S113104A2D2D2D2D2D2D2D2D2D2D2D2D2D2D2D2DC2
S113105A2D2D2D2D2D2D2D2D2D2D2D2D2D000A0D22
S113106A496E737472756374696F6E733A202020C3
S113107A20202020202020202020202020000A0DAB
S113108A7C4D6F6465202020202020202020207C95
S113109A202D207C436F6D6D616E64202020207C9E
S11310AA000A0D7C43757272656E742074696D65ED
S11310BA20207C202D207C2754696D652720202040
S11310CA20207C000A0D7C436F6E66696775726521
S11310DA2074696D657C202D207C27436F6E6669B8
S11310EA67272020207C000A0D7C53746F70776177
S11310FA74636820202020207C202D207C275374B0
S113110A6F707761746368277C000A0D5F5F5F5FA5
S113111A5F5F5F5F5F5F5F5F5F5F5F5F5F5F5F5FD1
S113112A5F5F5F5F5F5F5F5F5F5F5F5F5F5F5F0020
S113113A0A0D0A0D456E74657220636F6D6D616EDA
S113114A643A200054696D650074696D65005449F8
S113115A4D4500436F6E66696700636F6E66696723
S113116A00434F4E464947002A54696D652073650A
S113117A7474696E67732A000A0D5772697465205C
S113118A686F7572733A20000A0D496E76616C694C
S113119A6420696E707574212E000A0D5772697481
S11311AA65206D696E757465733A20000A0D496E7F
S11311BA76616C696420696E70757421000A0D5732
S11311CA72697465207365636F6E64733A200053A1
S11311DA746F7077617463680073746F7077617485
S11311EA63680053544F505741544348002A537478
S11311FA6F7077617463682A000A0D53746F70778D
S113120A6174636820737461727465642E20557303
S113121A6520636F6D6D616E64733A0A0D0027531E
S113122A7461727427202D20626567696E0A0D271E
S113123A53746F7027202D2070617573650A0D270A
S113124A526573657427202D207A65726F0A0D27FB
S113125A4578697427202D2072657475726E20741E
S113126A6F206D61696E206D656E750A0D000D53F0
S113127A746F707761746368202848483A4D4D3A10
S113128A53533A4D53293A200053746172740073CC
S113129A746172740053544152540053746F700051
S11312AA73746F700053544F500052657365740021
S11312BA72657365740052455345540045786974E0
S10F12CA00657869740045584954000020
S9030000FC
